{
  "abi": [
    {
      "anonymous": false,
      "inputs": [
        {
          "indexed": false,
          "internalType": "address",
          "name": "",
          "type": "address"
        },
        {
          "indexed": false,
          "internalType": "uint256",
          "name": "",
          "type": "uint256"
        }
      ],
      "name": "Locked",
      "type": "event"
    },
    {
      "anonymous": false,
      "inputs": [
        {
          "indexed": false,
          "internalType": "address",
          "name": "",
          "type": "address"
        },
        {
          "indexed": false,
          "internalType": "uint256",
          "name": "",
          "type": "uint256"
        }
      ],
      "name": "Withdraw",
      "type": "event"
    },
    {
      "inputs": [],
      "name": "deposit",
      "outputs": [],
      "stateMutability": "payable",
      "type": "function"
    },
    {
      "inputs": [
        {
          "internalType": "address",
          "name": "_address",
          "type": "address"
        }
      ],
      "name": "seeSafe",
      "outputs": [
        {
          "internalType": "uint256",
          "name": "",
          "type": "uint256"
        }
      ],
      "stateMutability": "view",
      "type": "function"
    },
    {
      "inputs": [],
      "name": "withdraw",
      "outputs": [],
      "stateMutability": "payable",
      "type": "function"
    }
  ],
  "bytecode": "608060405234801561001057600080fd5b506104aa806100206000396000f3fe6080604052600436106100345760003560e01c80633ccfd60b1461003957806351d8a48f14610043578063d0e30db014610075575b600080fd5b61004161007d565b005b34801561004f57600080fd5b5061006361005e3660046103c9565b6101e3565b60405190815260200160405180910390f35b610041610271565b336100a35760405162461bcd60e51b815260040161009a906103f9565b60405180910390fd5b336000908152602081905260409020600181015460029091015442916100c89161041b565b106101035760405162461bcd60e51b815260206004820152600b60248201526a054696d65206e6f742075760ac1b604482015260640161009a565b3360009081526020819052604090205461014d5760405162461bcd60e51b815260206004820152600b60248201526a0416d6f756e74203d3d20360ac1b604482015260640161009a565b3360008181526020819052604080822054905190929183156108fc02918491818181858888f19350505050158015610189573d6000803e3d6000fd5b50336000818152602081815260408083208381556001810184905560020192909255815192835282018390527f884edad9ce6fa2440d8a54cc123490eb96d2768479d49ff9c7366125a9424364910160405180910390a150565b6000336102025760405162461bcd60e51b815260040161009a906103f9565b6001600160a01b0382166000908152602081905260409020600101546102555760405162461bcd60e51b8152602060048201526008602482015267212045786973747360c01b604482015260640161009a565b506001600160a01b031660009081526020819052604090205490565b3361028e5760405162461bcd60e51b815260040161009a906103f9565b610297346102d1565b604080513381523460208201527f9f1ec8c880f76798e7b793325d625e9b60e4082a553c98f42b6cda368dd60008910160405180910390a1565b3360009081526020819052604080822054905163771602f760e01b8152600481018290526024810184905290919073__QuickMath_____________________________9063771602f7906044016040805180830381865af415801561033a573d6000803e3d6000fd5b505050506040513d601f19601f8201168201806040525081019061035e9190610441565b33600090815260208190526040812080549294508493509161038190849061041b565b90915550503360009081526020819052604081206001018054601e92906103a990849061041b565b909155505033600090815260208190526040902042600290910155505050565b6000602082840312156103db57600080fd5b81356001600160a01b03811681146103f257600080fd5b9392505050565b602080825260089082015267214164647265737360c01b604082015260600190565b6000821982111561043c57634e487b7160e01b600052601160045260246000fd5b500190565b6000806040838503121561045457600080fd5b8251801515811461046457600080fd5b602093909301519294929350505056fea264697066735822122089dac5e1dad73bc1360db3b188b9cf165cac4be205c19cb7b9f13db52cca743e64736f6c634300080c0033",
  "bytecodeSha1": "7351f91b2a7bd28eda521ea9c2a7db42ea95b307",
  "compiler": {
    "evm_version": "istanbul",
    "optimizer": {
      "enabled": true,
      "runs": 200
    },
    "version": "0.8.12+commit.f00d7308"
  },
  "contractName": "TimeLock",
  "deployedBytecode": "6080604052600436106100345760003560e01c80633ccfd60b1461003957806351d8a48f14610043578063d0e30db014610075575b600080fd5b61004161007d565b005b34801561004f57600080fd5b5061006361005e3660046103c9565b6101e3565b60405190815260200160405180910390f35b610041610271565b336100a35760405162461bcd60e51b815260040161009a906103f9565b60405180910390fd5b336000908152602081905260409020600181015460029091015442916100c89161041b565b106101035760405162461bcd60e51b815260206004820152600b60248201526a054696d65206e6f742075760ac1b604482015260640161009a565b3360009081526020819052604090205461014d5760405162461bcd60e51b815260206004820152600b60248201526a0416d6f756e74203d3d20360ac1b604482015260640161009a565b3360008181526020819052604080822054905190929183156108fc02918491818181858888f19350505050158015610189573d6000803e3d6000fd5b50336000818152602081815260408083208381556001810184905560020192909255815192835282018390527f884edad9ce6fa2440d8a54cc123490eb96d2768479d49ff9c7366125a9424364910160405180910390a150565b6000336102025760405162461bcd60e51b815260040161009a906103f9565b6001600160a01b0382166000908152602081905260409020600101546102555760405162461bcd60e51b8152602060048201526008602482015267212045786973747360c01b604482015260640161009a565b506001600160a01b031660009081526020819052604090205490565b3361028e5760405162461bcd60e51b815260040161009a906103f9565b610297346102d1565b604080513381523460208201527f9f1ec8c880f76798e7b793325d625e9b60e4082a553c98f42b6cda368dd60008910160405180910390a1565b3360009081526020819052604080822054905163771602f760e01b8152600481018290526024810184905290919073__$78684072fa23ae86aba89de7403ab67bdb$__9063771602f7906044016040805180830381865af415801561033a573d6000803e3d6000fd5b505050506040513d601f19601f8201168201806040525081019061035e9190610441565b33600090815260208190526040812080549294508493509161038190849061041b565b90915550503360009081526020819052604081206001018054601e92906103a990849061041b565b909155505033600090815260208190526040902042600290910155505050565b6000602082840312156103db57600080fd5b81356001600160a01b03811681146103f257600080fd5b9392505050565b602080825260089082015267214164647265737360c01b604082015260600190565b6000821982111561043c57634e487b7160e01b600052601160045260246000fd5b500190565b6000806040838503121561045457600080fd5b8251801515811461046457600080fd5b602093909301519294929350505056fea264697066735822122089dac5e1dad73bc1360db3b188b9cf165cac4be205c19cb7b9f13db52cca743e64736f6c634300080c0033",
  "language": "Solidity",
  "natspec": {
    "kind": "dev",
    "methods": {},
    "version": 1
  },
  "opcodes": "PUSH1 0x80 PUSH1 0x40 MSTORE PUSH1 0x4 CALLDATASIZE LT PUSH2 0x34 JUMPI PUSH1 0x0 CALLDATALOAD PUSH1 0xE0 SHR DUP1 PUSH4 0x3CCFD60B EQ PUSH2 0x39 JUMPI DUP1 PUSH4 0x51D8A48F EQ PUSH2 0x43 JUMPI DUP1 PUSH4 0xD0E30DB0 EQ PUSH2 0x75 JUMPI JUMPDEST PUSH1 0x0 DUP1 REVERT JUMPDEST PUSH2 0x41 PUSH2 0x7D JUMP JUMPDEST STOP JUMPDEST CALLVALUE DUP1 ISZERO PUSH2 0x4F JUMPI PUSH1 0x0 DUP1 REVERT JUMPDEST POP PUSH2 0x63 PUSH2 0x5E CALLDATASIZE PUSH1 0x4 PUSH2 0x3C9 JUMP JUMPDEST PUSH2 0x1E3 JUMP JUMPDEST PUSH1 0x40 MLOAD SWAP1 DUP2 MSTORE PUSH1 0x20 ADD PUSH1 0x40 MLOAD DUP1 SWAP2 SUB SWAP1 RETURN JUMPDEST PUSH2 0x41 PUSH2 0x271 JUMP JUMPDEST CALLER PUSH2 0xA3 JUMPI PUSH1 0x40 MLOAD PUSH3 0x461BCD PUSH1 0xE5 SHL DUP2 MSTORE PUSH1 0x4 ADD PUSH2 0x9A SWAP1 PUSH2 0x3F9 JUMP JUMPDEST PUSH1 0x40 MLOAD DUP1 SWAP2 SUB SWAP1 REVERT JUMPDEST CALLER PUSH1 0x0 SWAP1 DUP2 MSTORE PUSH1 0x20 DUP2 SWAP1 MSTORE PUSH1 0x40 SWAP1 KECCAK256 PUSH1 0x1 DUP2 ADD SLOAD PUSH1 0x2 SWAP1 SWAP2 ADD SLOAD TIMESTAMP SWAP2 PUSH2 0xC8 SWAP2 PUSH2 0x41B JUMP JUMPDEST LT PUSH2 0x103 JUMPI PUSH1 0x40 MLOAD PUSH3 0x461BCD PUSH1 0xE5 SHL DUP2 MSTORE PUSH1 0x20 PUSH1 0x4 DUP3 ADD MSTORE PUSH1 0xB PUSH1 0x24 DUP3 ADD MSTORE PUSH11 0x54696D65206E6F7420757 PUSH1 0xAC SHL PUSH1 0x44 DUP3 ADD MSTORE PUSH1 0x64 ADD PUSH2 0x9A JUMP JUMPDEST CALLER PUSH1 0x0 SWAP1 DUP2 MSTORE PUSH1 0x20 DUP2 SWAP1 MSTORE PUSH1 0x40 SWAP1 KECCAK256 SLOAD PUSH2 0x14D JUMPI PUSH1 0x40 MLOAD PUSH3 0x461BCD PUSH1 0xE5 SHL DUP2 MSTORE PUSH1 0x20 PUSH1 0x4 DUP3 ADD MSTORE PUSH1 0xB PUSH1 0x24 DUP3 ADD MSTORE PUSH11 0x416D6F756E74203D3D203 PUSH1 0xAC SHL PUSH1 0x44 DUP3 ADD MSTORE PUSH1 0x64 ADD PUSH2 0x9A JUMP JUMPDEST CALLER PUSH1 0x0 DUP2 DUP2 MSTORE PUSH1 0x20 DUP2 SWAP1 MSTORE PUSH1 0x40 DUP1 DUP3 KECCAK256 SLOAD SWAP1 MLOAD SWAP1 SWAP3 SWAP2 DUP4 ISZERO PUSH2 0x8FC MUL SWAP2 DUP5 SWAP2 DUP2 DUP2 DUP2 DUP6 DUP9 DUP9 CALL SWAP4 POP POP POP POP ISZERO DUP1 ISZERO PUSH2 0x189 JUMPI RETURNDATASIZE PUSH1 0x0 DUP1 RETURNDATACOPY RETURNDATASIZE PUSH1 0x0 REVERT JUMPDEST POP CALLER PUSH1 0x0 DUP2 DUP2 MSTORE PUSH1 0x20 DUP2 DUP2 MSTORE PUSH1 0x40 DUP1 DUP4 KECCAK256 DUP4 DUP2 SSTORE PUSH1 0x1 DUP2 ADD DUP5 SWAP1 SSTORE PUSH1 0x2 ADD SWAP3 SWAP1 SWAP3 SSTORE DUP2 MLOAD SWAP3 DUP4 MSTORE DUP3 ADD DUP4 SWAP1 MSTORE PUSH32 0x884EDAD9CE6FA2440D8A54CC123490EB96D2768479D49FF9C7366125A9424364 SWAP2 ADD PUSH1 0x40 MLOAD DUP1 SWAP2 SUB SWAP1 LOG1 POP JUMP JUMPDEST PUSH1 0x0 CALLER PUSH2 0x202 JUMPI PUSH1 0x40 MLOAD PUSH3 0x461BCD PUSH1 0xE5 SHL DUP2 MSTORE PUSH1 0x4 ADD PUSH2 0x9A SWAP1 PUSH2 0x3F9 JUMP JUMPDEST PUSH1 0x1 PUSH1 0x1 PUSH1 0xA0 SHL SUB DUP3 AND PUSH1 0x0 SWAP1 DUP2 MSTORE PUSH1 0x20 DUP2 SWAP1 MSTORE PUSH1 0x40 SWAP1 KECCAK256 PUSH1 0x1 ADD SLOAD PUSH2 0x255 JUMPI PUSH1 0x40 MLOAD PUSH3 0x461BCD PUSH1 0xE5 SHL DUP2 MSTORE PUSH1 0x20 PUSH1 0x4 DUP3 ADD MSTORE PUSH1 0x8 PUSH1 0x24 DUP3 ADD MSTORE PUSH8 0x2120457869737473 PUSH1 0xC0 SHL PUSH1 0x44 DUP3 ADD MSTORE PUSH1 0x64 ADD PUSH2 0x9A JUMP JUMPDEST POP PUSH1 0x1 PUSH1 0x1 PUSH1 0xA0 SHL SUB AND PUSH1 0x0 SWAP1 DUP2 MSTORE PUSH1 0x20 DUP2 SWAP1 MSTORE PUSH1 0x40 SWAP1 KECCAK256 SLOAD SWAP1 JUMP JUMPDEST CALLER PUSH2 0x28E JUMPI PUSH1 0x40 MLOAD PUSH3 0x461BCD PUSH1 0xE5 SHL DUP2 MSTORE PUSH1 0x4 ADD PUSH2 0x9A SWAP1 PUSH2 0x3F9 JUMP JUMPDEST PUSH2 0x297 CALLVALUE PUSH2 0x2D1 JUMP JUMPDEST PUSH1 0x40 DUP1 MLOAD CALLER DUP2 MSTORE CALLVALUE PUSH1 0x20 DUP3 ADD MSTORE PUSH32 0x9F1EC8C880F76798E7B793325D625E9B60E4082A553C98F42B6CDA368DD60008 SWAP2 ADD PUSH1 0x40 MLOAD DUP1 SWAP2 SUB SWAP1 LOG1 JUMP JUMPDEST CALLER PUSH1 0x0 SWAP1 DUP2 MSTORE PUSH1 0x20 DUP2 SWAP1 MSTORE PUSH1 0x40 DUP1 DUP3 KECCAK256 SLOAD SWAP1 MLOAD PUSH4 0x771602F7 PUSH1 0xE0 SHL DUP2 MSTORE PUSH1 0x4 DUP2 ADD DUP3 SWAP1 MSTORE PUSH1 0x24 DUP2 ADD DUP5 SWAP1 MSTORE SWAP1 SWAP2 SWAP1 PUSH20 0x0 SWAP1 PUSH4 0x771602F7 SWAP1 PUSH1 0x44 ADD PUSH1 0x40 DUP1 MLOAD DUP1 DUP4 SUB DUP2 DUP7 GAS DELEGATECALL ISZERO DUP1 ISZERO PUSH2 0x33A JUMPI RETURNDATASIZE PUSH1 0x0 DUP1 RETURNDATACOPY RETURNDATASIZE PUSH1 0x0 REVERT JUMPDEST POP POP POP POP PUSH1 0x40 MLOAD RETURNDATASIZE PUSH1 0x1F NOT PUSH1 0x1F DUP3 ADD AND DUP3 ADD DUP1 PUSH1 0x40 MSTORE POP DUP2 ADD SWAP1 PUSH2 0x35E SWAP2 SWAP1 PUSH2 0x441 JUMP JUMPDEST CALLER PUSH1 0x0 SWAP1 DUP2 MSTORE PUSH1 0x20 DUP2 SWAP1 MSTORE PUSH1 0x40 DUP2 KECCAK256 DUP1 SLOAD SWAP3 SWAP5 POP DUP5 SWAP4 POP SWAP2 PUSH2 0x381 SWAP1 DUP5 SWAP1 PUSH2 0x41B JUMP JUMPDEST SWAP1 SWAP2 SSTORE POP POP CALLER PUSH1 0x0 SWAP1 DUP2 MSTORE PUSH1 0x20 DUP2 SWAP1 MSTORE PUSH1 0x40 DUP2 KECCAK256 PUSH1 0x1 ADD DUP1 SLOAD PUSH1 0x1E SWAP3 SWAP1 PUSH2 0x3A9 SWAP1 DUP5 SWAP1 PUSH2 0x41B JUMP JUMPDEST SWAP1 SWAP2 SSTORE POP POP CALLER PUSH1 0x0 SWAP1 DUP2 MSTORE PUSH1 0x20 DUP2 SWAP1 MSTORE PUSH1 0x40 SWAP1 KECCAK256 TIMESTAMP PUSH1 0x2 SWAP1 SWAP2 ADD SSTORE POP POP POP JUMP JUMPDEST PUSH1 0x0 PUSH1 0x20 DUP3 DUP5 SUB SLT ISZERO PUSH2 0x3DB JUMPI PUSH1 0x0 DUP1 REVERT JUMPDEST DUP2 CALLDATALOAD PUSH1 0x1 PUSH1 0x1 PUSH1 0xA0 SHL SUB DUP2 AND DUP2 EQ PUSH2 0x3F2 JUMPI PUSH1 0x0 DUP1 REVERT JUMPDEST SWAP4 SWAP3 POP POP POP JUMP JUMPDEST PUSH1 0x20 DUP1 DUP3 MSTORE PUSH1 0x8 SWAP1 DUP3 ADD MSTORE PUSH8 0x2141646472657373 PUSH1 0xC0 SHL PUSH1 0x40 DUP3 ADD MSTORE PUSH1 0x60 ADD SWAP1 JUMP JUMPDEST PUSH1 0x0 DUP3 NOT DUP3 GT ISZERO PUSH2 0x43C JUMPI PUSH4 0x4E487B71 PUSH1 0xE0 SHL PUSH1 0x0 MSTORE PUSH1 0x11 PUSH1 0x4 MSTORE PUSH1 0x24 PUSH1 0x0 REVERT JUMPDEST POP ADD SWAP1 JUMP JUMPDEST PUSH1 0x0 DUP1 PUSH1 0x40 DUP4 DUP6 SUB SLT ISZERO PUSH2 0x454 JUMPI PUSH1 0x0 DUP1 REVERT JUMPDEST DUP3 MLOAD DUP1 ISZERO ISZERO DUP2 EQ PUSH2 0x464 JUMPI PUSH1 0x0 DUP1 REVERT JUMPDEST PUSH1 0x20 SWAP4 SWAP1 SWAP4 ADD MLOAD SWAP3 SWAP5 SWAP3 SWAP4 POP POP POP JUMP INVALID LOG2 PUSH5 0x6970667358 0x22 SLT KECCAK256 DUP10 0xDA 0xC5 0xE1 0xDA 0xD7 EXTCODESIZE 0xC1 CALLDATASIZE 0xD 0xB3 0xB1 DUP9 0xB9 0xCF AND 0x5C 0xAC 0x4B 0xE2 SDIV 0xC1 SWAP13 0xB7 0xB9 CALL RETURNDATASIZE 0xB5 0x2C 0xCA PUSH21 0x3E64736F6C634300080C0033000000000000000000 ",
  "sha1": "46f7db69bdff24582c790b328406e7243f8a1b03",
  "source": "// SPDX-License-Identifier: MIT\npragma solidity >0.6.0;\n\n/*\n * @title: \n * @author: Anthony (fps) https://github.com/fps8k .\n * @dev: \n*/\n\nlibrary QuickMath\n{\n    function add(uint256 a, uint256 b) external pure returns(bool, uint256)\n    {\n        if((a + b) > ((2 ** 256) - 1))\n            return(false, 0);\n        else\n            return(true, a + b);\n    }\n}\n\n\ncontract TimeLock\n{\n    using QuickMath for uint256;\n\n\n    // Events.\n\n    event Locked(address, uint256);\n    event Withdraw(address, uint256);\n\n\n    struct Lock\n    {\n        uint256 amount;\n        uint256 time;\n        uint256 last_lock;\n    }\n\n\n    mapping(address => Lock) private safe;\n\n\n    modifier isValidSender()\n    {\n        require(msg.sender != address(0), \"!Address\");\n        _;\n    }\n\n\n\n\n    function deposit() public payable isValidSender\n    {\n        _deposit(msg.value);\n        emit Locked(msg.sender, msg.value);\n    }\n\n\n\n\n    function _deposit(uint256 _amount) private\n    {\n        uint256 current = safe[msg.sender].amount;\n        (, uint256 addition) = current.add(_amount);\n        safe[msg.sender].amount += addition;\n\n        safe[msg.sender].time += 30 seconds;\n        safe[msg.sender].last_lock = block.timestamp;\n    }\n\n\n\n\n    function withdraw() public payable isValidSender\n    {\n        require(((safe[msg.sender].last_lock + safe[msg.sender].time) < (block.timestamp)), \"Time not up\");\n        require(safe[msg.sender].amount > 0, \"Amount == 0\");\n\n\n        uint256 _amount = safe[msg.sender].amount;\n        \n        payable(msg.sender).transfer(_amount);\n\n        delete safe[msg.sender];\n\n        emit Withdraw(msg.sender, _amount);\n    }\n\n\n\n\n    function seeSafe(address _address) public view isValidSender returns(uint256)\n    {\n        require(safe[_address].time > 0, \"! Exists\");\n        return safe[_address].amount;\n    }\n}",
  "sourcePath": "contracts/TimeLock.sol",
  "type": "contract"
}