{"abi":[{"inputs":[{"internalType":"uint256","name":"a","type":"uint256"},{"internalType":"uint256","name":"b","type":"uint256"}],"name":"add","outputs":[{"internalType":"bool","name":"","type":"bool"},{"internalType":"uint256","name":"","type":"uint256"}],"stateMutability":"pure","type":"function"}],"bytecode":"61011161003a600b82828239805160001a60731461002d57634e487b7160e01b600052600060045260246000fd5b30600052607381538281f3fe730000000000000000000000000000000000000000301460806040526004361060335760003560e01c8063771602f7146038575b600080fd5b604760433660046095565b6062565b60408051921515835260208301919091520160405180910390f35b6000806000196070848660b6565b1115607f57506000905080608e565b60016089848660b6565b915091505b9250929050565b6000806040838503121560a757600080fd5b50508035926020909101359150565b6000821982111560d657634e487b7160e01b600052601160045260246000fd5b50019056fea2646970667358221220c1bed3ddd41c03589a0d44aa51f2a4d1bce2995372d6266a15885ae53f8c320564736f6c634300080c0033","bytecodeSha1":"fe168a6c6767309d6a0a871d4bbb4806f274f709","compiler":{"evm_version":"istanbul","optimizer":{"enabled":true,"runs":200},"version":"0.8.12+commit.f00d7308"},"contractName":"QuickMath","language":"Solidity","natspec":{"kind":"dev","methods":{},"version":1},"opcodes":"PUSH20 0x0 ADDRESS EQ PUSH1 0x80 PUSH1 0x40 MSTORE PUSH1 0x4 CALLDATASIZE LT PUSH1 0x33 JUMPI PUSH1 0x0 CALLDATALOAD PUSH1 0xE0 SHR DUP1 PUSH4 0x771602F7 EQ PUSH1 0x38 JUMPI JUMPDEST PUSH1 0x0 DUP1 REVERT JUMPDEST PUSH1 0x47 PUSH1 0x43 CALLDATASIZE PUSH1 0x4 PUSH1 0x95 JUMP JUMPDEST PUSH1 0x62 JUMP JUMPDEST PUSH1 0x40 DUP1 MLOAD SWAP3 ISZERO ISZERO DUP4 MSTORE PUSH1 0x20 DUP4 ADD SWAP2 SWAP1 SWAP2 MSTORE ADD PUSH1 0x40 MLOAD DUP1 SWAP2 SUB SWAP1 RETURN JUMPDEST PUSH1 0x0 DUP1 PUSH1 0x0 NOT PUSH1 0x70 DUP5 DUP7 PUSH1 0xB6 JUMP JUMPDEST GT ISZERO PUSH1 0x7F JUMPI POP PUSH1 0x0 SWAP1 POP DUP1 PUSH1 0x8E JUMP JUMPDEST PUSH1 0x1 PUSH1 0x89 DUP5 DUP7 PUSH1 0xB6 JUMP JUMPDEST SWAP2 POP SWAP2 POP JUMPDEST SWAP3 POP SWAP3 SWAP1 POP JUMP JUMPDEST PUSH1 0x0 DUP1 PUSH1 0x40 DUP4 DUP6 SUB SLT ISZERO PUSH1 0xA7 JUMPI PUSH1 0x0 DUP1 REVERT JUMPDEST POP POP DUP1 CALLDATALOAD SWAP3 PUSH1 0x20 SWAP1 SWAP2 ADD CALLDATALOAD SWAP2 POP JUMP JUMPDEST PUSH1 0x0 DUP3 NOT DUP3 GT ISZERO PUSH1 0xD6 JUMPI PUSH4 0x4E487B71 PUSH1 0xE0 SHL PUSH1 0x0 MSTORE PUSH1 0x11 PUSH1 0x4 MSTORE PUSH1 0x24 PUSH1 0x0 REVERT JUMPDEST POP ADD SWAP1 JUMP INVALID LOG2 PUSH5 0x6970667358 0x22 SLT KECCAK256 0xC1 0xBE 0xD3 0xDD 0xD4 SHR SUB PC SWAP11 0xD DIFFICULTY 0xAA MLOAD CALLCODE LOG4 0xD1 0xBC 0xE2 SWAP10 MSTORE8 PUSH19 0xD6266A15885AE53F8C320564736F6C63430008 0xC STOP CALLER ","sha1":"46f7db69bdff24582c790b328406e7243f8a1b03","source":"// SPDX-License-Identifier: MIT\npragma solidity >0.6.0;\n\n/*\n * @title: \n * @author: Anthony (fps) https://github.com/fps8k .\n * @dev: \n*/\n\nlibrary QuickMath\n{\n    function add(uint256 a, uint256 b) external pure returns(bool, uint256)\n    {\n        if((a + b) > ((2 ** 256) - 1))\n            return(false, 0);\n        else\n            return(true, a + b);\n    }\n}\n\n\ncontract TimeLock\n{\n    using QuickMath for uint256;\n\n\n    // Events.\n\n    event Locked(address, uint256);\n    event Withdraw(address, uint256);\n\n\n    struct Lock\n    {\n        uint256 amount;\n        uint256 time;\n        uint256 last_lock;\n    }\n\n\n    mapping(address => Lock) private safe;\n\n\n    modifier isValidSender()\n    {\n        require(msg.sender != address(0), \"!Address\");\n        _;\n    }\n\n\n\n\n    function deposit() public payable isValidSender\n    {\n        _deposit(msg.value);\n        emit Locked(msg.sender, msg.value);\n    }\n\n\n\n\n    function _deposit(uint256 _amount) private\n    {\n        uint256 current = safe[msg.sender].amount;\n        (, uint256 addition) = current.add(_amount);\n        safe[msg.sender].amount += addition;\n\n        safe[msg.sender].time += 30 seconds;\n        safe[msg.sender].last_lock = block.timestamp;\n    }\n\n\n\n\n    function withdraw() public payable isValidSender\n    {\n        require(((safe[msg.sender].last_lock + safe[msg.sender].time) < (block.timestamp)), \"Time not up\");\n        require(safe[msg.sender].amount > 0, \"Amount == 0\");\n\n\n        uint256 _amount = safe[msg.sender].amount;\n        \n        payable(msg.sender).transfer(_amount);\n\n        delete safe[msg.sender];\n\n        emit Withdraw(msg.sender, _amount);\n    }\n\n\n\n\n    function seeSafe(address _address) public view isValidSender returns(uint256)\n    {\n        require(safe[_address].time > 0, \"! Exists\");\n        return safe[_address].amount;\n    }\n}","sourcePath":"contracts/TimeLock.sol","type":"library","deployment":{"address":"0x1BC59AbAcee755F4C992cd02BDC84C4Da4AA4e4d","chainid":"4","blockHeight":10582742}}